:020000040800F2
:1000000000200020890100088D0100088F010008F0
:1000100000000000000000000000000000000000E0
:10002000000000000000000000000000A90100081E
:100030000000000000000000AB010008AD01000856
:10004000B901000800000000B9010008B90100086A
:10005000B9010008B9010008B9010008B901000898
:1000600000000000B9010008B9010008B90100084A
:10007000B9010008B9010008B9010008000000003A
:10008000B90100080000000000000000B9010008EC
:10009000B9010008B9010008B9010008B901000858
:1000A000B9010008B9010008B9010008B901000848
:1000B000B90100080000000000000000000000007E
:1000C0005FF808F173B500F0DBF80023234A2449F8
:1000D0009A188A4204D22349C95804331160F5E7BB
:1000E000214B224A191D043B934203D200221A607D
:1000F0000B1CF6E700F0C8F8684601A900F0B8F854
:100100001B4B1C4D0024ED1AAD101E1CAC4204DA32
:10011000A300F35898470134F8E7174B174D002414
:10012000ED1AAD101E1CAC4204DAA300F358984738
:100130000134F8E70098019900F066F9104B114C72
:10014000051CE41AA4101E1C002C04DD013CA300B5
:10015000F3589847F8E7281C00F086F800000020C4
:100160008000002034060008840000208800002061
:10017000BC010008BC010008BC010008BC0100086B
:10018000BC010008BC01000809480047FEE7042044
:100190007146084202D0EFF3098001E0EFF30880D6
:1001A0007146044A1047FEE7FEE7FEE7704700008D
:0C01B000C5000008A7010008FEE70000E1
:1001C000F7B50B68019300230124019A9C4022405B
:1001D000A2422CD10D796C1E012C14D887685C00CA
:1001E0000326A640B74387604E798768A640341C33
:1001F0003C4384608488944384808A7984889A40CC
:10020000224392B282805A00032407689440E44358
:1002100027400760076895403D430560C5682C404E
:10022000C460CD79C46895402A1C2243C260013362
:10023000102BC9D1F7BD0000044B0122036000233D
:10024000037142718371C3717047C046FFFF0000A4
:10025000044B5A69002902D01043586101E08243DF
:100260005A6170470010024008B500F011F8000014
:1002700001230360014B0B607047C0460000002063
:1002800008B500F011F808BD08B500F087F808BD02
:10029000BFF34F8F024A034BDA60BFF34F8FFEE785
:1002A0000400FA0500ED00E0344B0122196882B029
:1002B0001143196058683249014059601868314942
:1002C00001401960186830490140196058682F4989
:1002D00001405960D96A0F208143D962186B2C49BB
:1002E00001401963596B9143002259639A6000924F
:1002F00001921968802252020A431A60196880220A
:100300009202114001910099013100910199002957
:1003100004D10098A021C9018842EFD119680A4090
:1003200000D001220192019A012A25D1194A1121F6
:1003300011605A685A605A685A605968164A0A40E9
:100340005A605968882252030A435A601968802209
:1003500052040A431A601968084A8801FBD551689B
:100360000320814351605168022001435160596864
:100370000C220A40082AFAD102B07047001002404D
:100380000CB8FF08FFFFF6FEFFFFFBFFFFFFC0FFFB
:10039000ACFEFFFF00200240FF7FC0FF70B5154D8F
:1003A0000C236A68144C1340042B01D0082B02D094
:1003B000124B236014E06E68C023B6026A68360FE1
:1003C0005B0202361A4202D10D4B5E4307E0E96A36
:1003D0000F2319400131094800F07EF8464326609A
:1003E0006B68084A1B061B0FD35C2268DA40226048
:1003F00070BDC046001002401800002000127A00B4
:1004000000093D000800002000B5802189B00903E3
:10041000684600F01FF8802168468900012200F03C
:100420003DF868460921012200F044F8FEE700008B
:10043000014B0833036070472006000810B5044BD9
:10044000041C0833036000F040F8201C10BDC046B7
:100450002006000838B50F4B0025083303604160C3
:10046000041CC561081C0121FFF7F2FE62688023AD
:100470001B039A420BD1084B201CA3601430FFF7DA
:10048000DBFE012323760223A576E3766576201C26
:1004900038BDC046200600080008004808B5012AFB
:1004A00007D1031C14334161C361191C8068FFF735
:1004B00087FE08BD01238B40191C8368002A01D0E8
:1004C000996101E089B21985704708B5002801D00B
:1004D00000F052F808BD0000002934D001230022AA
:1004E00010B488422CD301242407A14204D28142B3
:1004F00002D209011B01F8E7E400A14204D28142C3
:1005000002D249005B00F8E7884201D3401A1A433F
:100510004C08A04202D3001B5C0822438C08A04276
:1005200002D3001B9C082243CC08A04202D3001B2C
:10053000DC082243002803D01B0901D00909E3E7A6
:10054000101C10BC7047002801D00020C04307B425
:10055000024802A14018029003BDC04619000000E5
:100560000029F0D003B5FFF7B9FF0EBC4243891A4A
:100570001847C0467047C04608B5034B011C1868B1
:1005800000F004F808BDC0467C00002030B500290A
:1005900040D004390B68002B00DAC9181E4A1368D2
:1005A000141C002B02D14B60116033E099420FD232
:1005B00008680A189A4205D113685268C018086082
:1005C0004A6000E04B60216024E08A4203D8131C9B
:1005D0005A68002AF9D11D685C198C420BD1096850
:1005E000691858181960904214D114685268091992
:1005F00019605A600EE08C4202D90C23036009E0B6
:1006000008680C18944203D11468526800190860F5
:100610004A60596030BDC0468400002000000000E0
:100620000000000000000000310400083D04000844
:02063000430085
:100634008000002000000000000000000000000016
:100644000102030406070809006CDC020000000034
:100654000000000000000000000000000000000096
:100664000000000000000000000000003006000848
:100674000000000000000000000000000000000076
:100684000000000000000000000000000000000066
:100694000000000000000000000000000000000056
:1006A4000000000000000000000000001C0000200A
:04000005080000C52A
:00000001FF
